{
  "contractName": "CreateDegree",
  "abi": [
    {
      "inputs": [],
      "stateMutability": "nonpayable",
      "type": "constructor"
    },
    {
      "anonymous": false,
      "inputs": [
        {
          "indexed": false,
          "internalType": "contract DegreeBlock",
          "name": "degree",
          "type": "address"
        },
        {
          "indexed": false,
          "internalType": "string",
          "name": "laurea",
          "type": "string"
        },
        {
          "indexed": false,
          "internalType": "uint256",
          "name": "timestamp_creation",
          "type": "uint256"
        },
        {
          "indexed": false,
          "internalType": "address[]",
          "name": "commisione",
          "type": "address[]"
        }
      ],
      "name": "certificato_creato",
      "type": "event"
    },
    {
      "inputs": [
        {
          "internalType": "address",
          "name": "_address",
          "type": "address"
        }
      ],
      "name": "is_valid_certificate",
      "outputs": [
        {
          "internalType": "bool",
          "name": "",
          "type": "bool"
        }
      ],
      "stateMutability": "view",
      "type": "function",
      "constant": true
    },
    {
      "inputs": [
        {
          "internalType": "string",
          "name": "_nome_cognome",
          "type": "string"
        }
      ],
      "name": "set_nome_cognome",
      "outputs": [],
      "stateMutability": "nonpayable",
      "type": "function"
    },
    {
      "inputs": [
        {
          "internalType": "address",
          "name": "_address",
          "type": "address"
        }
      ],
      "name": "get_nome_cognome",
      "outputs": [
        {
          "internalType": "string",
          "name": "",
          "type": "string"
        }
      ],
      "stateMutability": "view",
      "type": "function",
      "constant": true
    },
    {
      "inputs": [
        {
          "internalType": "string",
          "name": "laurea",
          "type": "string"
        },
        {
          "internalType": "string",
          "name": "nomeLaureando",
          "type": "string"
        },
        {
          "internalType": "string",
          "name": "codiceFiscaleLaureando",
          "type": "string"
        },
        {
          "internalType": "string",
          "name": "nomeRealatore",
          "type": "string"
        },
        {
          "internalType": "address[]",
          "name": "commisione",
          "type": "address[]"
        }
      ],
      "name": "crea_certificato_di_laurea",
      "outputs": [
        {
          "internalType": "address",
          "name": "",
          "type": "address"
        }
      ],
      "stateMutability": "nonpayable",
      "type": "function"
    }
  ],
  "bytecode": "0x608060405273f472a171dc35fd30a2462dd5cdcf5f39b26dc390600260006101000a81548173ffffffffffffffffffffffffffffffffffffffff021916908373ffffffffffffffffffffffffffffffffffffffff16021790555034801561006557600080fd5b50611f73806100756000396000f3fe60806040523480156200001157600080fd5b5060043610620000525760003560e01c8063225a504d14620000575780632a4dadfa146200007757806339bd09a914620000ad57806347e1f15c14620000e3575b600080fd5b6200007560048036038101906200006f919062000639565b62000119565b005b6200009560048036038101906200008f91906200060d565b62000171565b604051620000a491906200091c565b60405180910390f35b620000cb6004803603810190620000c591906200060d565b620001c7565b604051620000da919062000994565b60405180910390f35b620001016004803603810190620000fb91906200067e565b6200029f565b604051620001109190620008ff565b60405180910390f35b806000803373ffffffffffffffffffffffffffffffffffffffff1673ffffffffffffffffffffffffffffffffffffffff16815260200190815260200160002090805190602001906200016d92919062000424565b5050565b6000600160008373ffffffffffffffffffffffffffffffffffffffff1673ffffffffffffffffffffffffffffffffffffffff16815260200190815260200160002060009054906101000a900460ff169050919050565b60606000808373ffffffffffffffffffffffffffffffffffffffff1673ffffffffffffffffffffffffffffffffffffffff1681526020019081526020016000208054620002149062000c0c565b80601f0160208091040260200160405190810160405280929190818152602001828054620002429062000c0c565b8015620002935780601f10620002675761010080835404028352916020019162000293565b820191906000526020600020905b8154815290600101906020018083116200027557829003601f168201915b50505050509050919050565b6000600260009054906101000a900473ffffffffffffffffffffffffffffffffffffffff1673ffffffffffffffffffffffffffffffffffffffff163373ffffffffffffffffffffffffffffffffffffffff161462000334576040517f08c379a00000000000000000000000000000000000000000000000000000000081526004016200032b9062000a48565b60405180910390fd5b600042905060008787878785886040516200034f90620004b5565b6200036096959493929190620009b8565b604051809103906000f0801580156200037d573d6000803e3d6000fd5b5090507ffd3a0d04d2ab8c9ac68c124b21d3af427604beed9d395e3f99f327ef9df9cc8681898487604051620003b7949392919062000939565b60405180910390a160018060008373ffffffffffffffffffffffffffffffffffffffff1673ffffffffffffffffffffffffffffffffffffffff16815260200190815260200160002060006101000a81548160ff021916908315150217905550809250505095945050505050565b828054620004329062000c0c565b90600052602060002090601f016020900481019282620004565760008555620004a2565b82601f106200047157805160ff1916838001178555620004a2565b82800160010185558215620004a2579182015b82811115620004a157825182559160200191906001019062000484565b5b509050620004b19190620004c3565b5090565b6112728062000ccc83390190565b5b80821115620004de576000816000905550600101620004c4565b5090565b6000620004f9620004f38462000a9e565b62000a6a565b905080838252602082019050828560208602820111156200051957600080fd5b60005b858110156200054d57816200053288826200059c565b8452602084019350602083019250506001810190506200051c565b5050509392505050565b60006200056e620005688462000acd565b62000a6a565b9050828152602081018484840111156200058757600080fd5b6200059484828562000bc7565b509392505050565b600081359050620005ad8162000cb1565b92915050565b600082601f830112620005c557600080fd5b8135620005d7848260208601620004e2565b91505092915050565b600082601f830112620005f257600080fd5b81356200060484826020860162000557565b91505092915050565b6000602082840312156200062057600080fd5b600062000630848285016200059c565b91505092915050565b6000602082840312156200064c57600080fd5b600082013567ffffffffffffffff8111156200066757600080fd5b6200067584828501620005e0565b91505092915050565b600080600080600060a086880312156200069757600080fd5b600086013567ffffffffffffffff811115620006b257600080fd5b620006c088828901620005e0565b955050602086013567ffffffffffffffff811115620006de57600080fd5b620006ec88828901620005e0565b945050604086013567ffffffffffffffff8111156200070a57600080fd5b6200071888828901620005e0565b935050606086013567ffffffffffffffff8111156200073657600080fd5b6200074488828901620005e0565b925050608086013567ffffffffffffffff8111156200076257600080fd5b6200077088828901620005b3565b9150509295509295909350565b60006200078b838362000797565b60208301905092915050565b620007a28162000b55565b82525050565b620007b38162000b55565b82525050565b6000620007c68262000b10565b620007d2818562000b33565b9350620007df8362000b00565b8060005b8381101562000816578151620007fa88826200077d565b9750620008078362000b26565b925050600181019050620007e3565b5085935050505092915050565b6200082e8162000b69565b82525050565b6200083f8162000b9f565b82525050565b6000620008528262000b1b565b6200085e818562000b44565b93506200087081856020860162000bd6565b6200087b8162000ca0565b840191505092915050565b60006200089560408362000b44565b91507f536f6c6f20696c20636f7264696e61746f72652064656c20636f72736f20707560008301527f6f2063726561726520756e20636572746966696361746f206469206c617572616020830152604082019050919050565b620008f98162000b95565b82525050565b6000602082019050620009166000830184620007a8565b92915050565b600060208201905062000933600083018462000823565b92915050565b600060808201905062000950600083018762000834565b818103602083015262000964818662000845565b9050620009756040830185620008ee565b8181036060830152620009898184620007b9565b905095945050505050565b60006020820190508181036000830152620009b0818462000845565b905092915050565b600060c0820190508181036000830152620009d4818962000845565b90508181036020830152620009ea818862000845565b9050818103604083015262000a00818762000845565b9050818103606083015262000a16818662000845565b905062000a276080830185620008ee565b81810360a083015262000a3b8184620007b9565b9050979650505050505050565b6000602082019050818103600083015262000a638162000886565b9050919050565b6000604051905081810181811067ffffffffffffffff8211171562000a945762000a9362000c71565b5b8060405250919050565b600067ffffffffffffffff82111562000abc5762000abb62000c71565b5b602082029050602081019050919050565b600067ffffffffffffffff82111562000aeb5762000aea62000c71565b5b601f19601f8301169050602081019050919050565b6000819050602082019050919050565b600081519050919050565b600081519050919050565b6000602082019050919050565b600082825260208201905092915050565b600082825260208201905092915050565b600062000b628262000b75565b9050919050565b60008115159050919050565b600073ffffffffffffffffffffffffffffffffffffffff82169050919050565b6000819050919050565b600062000bac8262000bb3565b9050919050565b600062000bc08262000b75565b9050919050565b82818337600083830152505050565b60005b8381101562000bf657808201518184015260208101905062000bd9565b8381111562000c06576000848401525b50505050565b6000600282049050600182168062000c2557607f821691505b6020821081141562000c3c5762000c3b62000c42565b5b50919050565b7f4e487b7100000000000000000000000000000000000000000000000000000000600052602260045260246000fd5b7f4e487b7100000000000000000000000000000000000000000000000000000000600052604160045260246000fd5b6000601f19601f8301169050919050565b62000cbc8162000b55565b811462000cc857600080fd5b5056fe60806040523480156200001157600080fd5b506040516200127238038062001272833981810160405281019062000037919062000368565b8160058190555085600090805190602001906200005692919062000176565b5084600190805190602001906200006f92919062000176565b5083600290805190602001906200008892919062000176565b508260039080519060200190620000a192919062000176565b5060005b815181101562000169576004828281518110620000eb577f4e487b7100000000000000000000000000000000000000000000000000000000600052603260045260246000fd5b60200260200101519080600181540180825580915050600190039060005260206000200160009091909190916101000a81548173ffffffffffffffffffffffffffffffffffffffff021916908373ffffffffffffffffffffffffffffffffffffffff16021790555080806200016090620005bb565b915050620000a5565b50505050505050620006ca565b828054620001849062000585565b90600052602060002090601f016020900481019282620001a85760008555620001f4565b82601f10620001c357805160ff1916838001178555620001f4565b82800160010185558215620001f4579182015b82811115620001f3578251825591602001919060010190620001d6565b5b50905062000203919062000207565b5090565b5b808211156200022257600081600090555060010162000208565b5090565b60006200023d6200023784620004af565b6200047b565b905080838252602082019050828560208602820111156200025d57600080fd5b60005b85811015620002915781620002768882620002e0565b84526020840193506020830192505060018101905062000260565b5050509392505050565b6000620002b2620002ac84620004de565b6200047b565b905082815260208101848484011115620002cb57600080fd5b620002d88482856200054f565b509392505050565b600081519050620002f18162000696565b92915050565b600082601f8301126200030957600080fd5b81516200031b84826020860162000226565b91505092915050565b600082601f8301126200033657600080fd5b8151620003488482602086016200029b565b91505092915050565b6000815190506200036281620006b0565b92915050565b60008060008060008060c087890312156200038257600080fd5b600087015167ffffffffffffffff8111156200039d57600080fd5b620003ab89828a0162000324565b965050602087015167ffffffffffffffff811115620003c957600080fd5b620003d789828a0162000324565b955050604087015167ffffffffffffffff811115620003f557600080fd5b6200040389828a0162000324565b945050606087015167ffffffffffffffff8111156200042157600080fd5b6200042f89828a0162000324565b93505060806200044289828a0162000351565b92505060a087015167ffffffffffffffff8111156200046057600080fd5b6200046e89828a01620002f7565b9150509295509295509295565b6000604051905081810181811067ffffffffffffffff82111715620004a557620004a462000667565b5b8060405250919050565b600067ffffffffffffffff821115620004cd57620004cc62000667565b5b602082029050602081019050919050565b600067ffffffffffffffff821115620004fc57620004fb62000667565b5b601f19601f8301169050602081019050919050565b60006200051e8262000525565b9050919050565b600073ffffffffffffffffffffffffffffffffffffffff82169050919050565b6000819050919050565b60005b838110156200056f57808201518184015260208101905062000552565b838111156200057f576000848401525b50505050565b600060028204905060018216806200059e57607f821691505b60208210811415620005b557620005b462000638565b5b50919050565b6000620005c88262000545565b91507fffffffffffffffffffffffffffffffffffffffffffffffffffffffffffffffff821415620005fe57620005fd62000609565b5b600182019050919050565b7f4e487b7100000000000000000000000000000000000000000000000000000000600052601160045260246000fd5b7f4e487b7100000000000000000000000000000000000000000000000000000000600052602260045260246000fd5b7f4e487b7100000000000000000000000000000000000000000000000000000000600052604160045260246000fd5b620006a18162000511565b8114620006ad57600080fd5b50565b620006bb8162000545565b8114620006c757600080fd5b50565b610b9880620006da6000396000f3fe608060405234801561001057600080fd5b50600436106100415760003560e01c806314bc8ab6146100465780632ca15122146100765780634ac819aa14610080575b600080fd5b610060600480360381019061005b919061068d565b61009e565b60405161006d9190610903565b60405180910390f35b61007e6100f4565b005b6100886102aa565b604051610095919061095e565b60405180910390f35b6000600660008373ffffffffffffffffffffffffffffffffffffffff1673ffffffffffffffffffffffffffffffffffffffff16815260200190815260200160002060009054906101000a900460ff169050919050565b61018433600480548060200260200160405190810160405280929190818152602001828054801561017a57602002820191906000526020600020905b8160009054906101000a900473ffffffffffffffffffffffffffffffffffffffff1673ffffffffffffffffffffffffffffffffffffffff1681526020019060010190808311610130575b5050505050610594565b6101c3576040517f08c379a00000000000000000000000000000000000000000000000000000000081526004016101ba9061093e565b60405180910390fd5b600660003373ffffffffffffffffffffffffffffffffffffffff1673ffffffffffffffffffffffffffffffffffffffff16815260200190815260200160002060009054906101000a900460ff1615610250576040517f08c379a00000000000000000000000000000000000000000000000000000000081526004016102479061091e565b60405180910390fd5b6001600660003373ffffffffffffffffffffffffffffffffffffffff1673ffffffffffffffffffffffffffffffffffffffff16815260200190815260200160002060006101000a81548160ff021916908315150217905550565b6102b2610642565b6040518060c00160405280600080546102ca90610a61565b80601f01602080910402602001604051908101604052809291908181526020018280546102f690610a61565b80156103435780601f1061031857610100808354040283529160200191610343565b820191906000526020600020905b81548152906001019060200180831161032657829003601f168201915b505050505081526020016001805461035a90610a61565b80601f016020809104026020016040519081016040528092919081815260200182805461038690610a61565b80156103d35780601f106103a8576101008083540402835291602001916103d3565b820191906000526020600020905b8154815290600101906020018083116103b657829003601f168201915b50505050508152602001600280546103ea90610a61565b80601f016020809104026020016040519081016040528092919081815260200182805461041690610a61565b80156104635780601f1061043857610100808354040283529160200191610463565b820191906000526020600020905b81548152906001019060200180831161044657829003601f168201915b505050505081526020016003805461047a90610a61565b80601f01602080910402602001604051908101604052809291908181526020018280546104a690610a61565b80156104f35780601f106104c8576101008083540402835291602001916104f3565b820191906000526020600020905b8154815290600101906020018083116104d657829003601f168201915b505050505081526020016005548152602001600480548060200260200160405190810160405280929190818152602001828054801561058757602002820191906000526020600020905b8160009054906101000a900473ffffffffffffffffffffffffffffffffffffffff1673ffffffffffffffffffffffffffffffffffffffff168152602001906001019080831161053d575b5050505050815250905090565b600080600090505b8251811015610636578281815181106105de577f4e487b7100000000000000000000000000000000000000000000000000000000600052603260045260246000fd5b602002602001015173ffffffffffffffffffffffffffffffffffffffff168473ffffffffffffffffffffffffffffffffffffffff16141561062357600191505061063c565b808061062e90610a93565b91505061059c565b50600090505b92915050565b6040518060c001604052806060815260200160608152602001606081526020016060815260200160008152602001606081525090565b60008135905061068781610b4b565b92915050565b60006020828403121561069f57600080fd5b60006106ad84828501610678565b91505092915050565b60006106c283836106ce565b60208301905092915050565b6106d7816109e6565b82525050565b60006106e882610990565b6106f281856109b3565b93506106fd83610980565b8060005b8381101561072e57815161071588826106b6565b9750610720836109a6565b925050600181019050610701565b5085935050505092915050565b610744816109f8565b82525050565b60006107558261099b565b61075f81856109c4565b935061076f818560208601610a2e565b61077881610b3a565b840191505092915050565b6000610790602b836109d5565b91507f496c2070726f666573736f726520686120676961206669726d61746f20696c2060008301527f636572746966696361746f0000000000000000000000000000000000000000006020830152604082019050919050565b60006107f66025836109d5565b91507f496c2070726f666573736f7265206e6f6e206527206e656c6c6120636f6d6d6960008301527f73696f6e650000000000000000000000000000000000000000000000000000006020830152604082019050919050565b600060c083016000830151848203600086015261086c828261074a565b91505060208301518482036020860152610886828261074a565b915050604083015184820360408601526108a0828261074a565b915050606083015184820360608601526108ba828261074a565b91505060808301516108cf60808601826108f4565b5060a083015184820360a08601526108e782826106dd565b9150508091505092915050565b6108fd81610a24565b82525050565b6000602082019050610918600083018461073b565b92915050565b6000602082019050818103600083015261093781610783565b9050919050565b60006020820190508181036000830152610957816107e9565b9050919050565b60006020820190508181036000830152610978818461084f565b905092915050565b6000819050602082019050919050565b600081519050919050565b600081519050919050565b6000602082019050919050565b600082825260208201905092915050565b600082825260208201905092915050565b600082825260208201905092915050565b60006109f182610a04565b9050919050565b60008115159050919050565b600073ffffffffffffffffffffffffffffffffffffffff82169050919050565b6000819050919050565b60005b83811015610a4c578082015181840152602081019050610a31565b83811115610a5b576000848401525b50505050565b60006002820490506001821680610a7957607f821691505b60208210811415610a8d57610a8c610b0b565b5b50919050565b6000610a9e82610a24565b91507fffffffffffffffffffffffffffffffffffffffffffffffffffffffffffffffff821415610ad157610ad0610adc565b5b600182019050919050565b7f4e487b7100000000000000000000000000000000000000000000000000000000600052601160045260246000fd5b7f4e487b7100000000000000000000000000000000000000000000000000000000600052602260045260246000fd5b6000601f19601f8301169050919050565b610b54816109e6565b8114610b5f57600080fd5b5056fea264697066735822122094bdae1423cc896471e98a7611124238f089a0a0b2ce4b4d663a79e285a9b9de64736f6c63430008000033a26469706673582212209e29c7cb8430ad996569cd6b52efc570e95dc3134d065a0e6afba210c2799c3664736f6c63430008000033",
  "immutableReferences": {},
  "source": "// SPDX-License-Identifier: MIT\npragma solidity ^0.8.0;\n\n\n\n\n\n\ncontract CreateDegree{\n\n\tmapping (address => string) nome_cognome;\n\tmapping (address => bool) is_istazied;\n\n\taddress cordinatoreCorso = 0xf472a171dc35fD30a2462dD5CDCF5F39b26dc390;\n\tconstructor()  {}\n\n\tfunction is_valid_certificate( address  _address) public view returns (bool){\n\t\treturn is_istazied[_address];\n\t}\n\n\tfunction set_nome_cognome(string memory _nome_cognome) public{\n\t\tnome_cognome[msg.sender] = _nome_cognome;\n\t}\n\n\tfunction get_nome_cognome(address _address) public view returns (string memory) {\n\t\treturn nome_cognome[_address];\n\t}\n\n\tevent  certificato_creato(\n\t\t\tDegreeBlock degree,\n\t\t\t\tstring laurea,\n\t\t\t\tuint256 timestamp_creation,\n\t\t\t\taddress[] commisione);\n\n\tfunction crea_certificato_di_laurea(\n\t\t\t\t\tstring memory laurea,\n\t\t\t\t\tstring memory nomeLaureando,\n\t\t\t\t\tstring memory codiceFiscaleLaureando,\n\t\t\t\t\tstring memory nomeRealatore,\n\t\t\t\t\taddress[] memory commisione\n\t\t\t\t\t\t) public returns ( address  ){\n\t\t\n\t\trequire(msg.sender == cordinatoreCorso, \n\t\t\t\t\"Solo il cordinatore del corso puo creare un certificato di laura\");\n\t\t\n\t\tuint256 timestamp=  block.timestamp;\n\t\tDegreeBlock degree= new DegreeBlock(\n\t\t\t\t \tlaurea,\n\t\t\t\t\tnomeLaureando,\n\t\t\t\t\tcodiceFiscaleLaureando,\n\t\t\t\t\tnomeRealatore,\n\t\t\t\t\ttimestamp,\n\t\t\t\t\tcommisione\n\t\t);\n\n\t\temit certificato_creato(degree, laurea,timestamp,commisione);\n\t\tis_istazied[address(degree)]=true;\n\t\treturn address(degree);\n\n\t}\n\n\n}\n\ncontract DegreeBlock {\n\tstring laurea;\n\tstring nomeLaureando;\n\tstring codiceFiscaleLaureando;\n\tstring nomeRealatore;\n\taddress [] commisione;\n\tuint256 timestamp_creation;\n\tmapping (address => bool) hasSigned;\n\n\t\n\tstruct degree{\n\t\tstring laurea;\n\t\tstring nomeLaureando;\n\t\tstring codiceFiscaleLaureando;\n\t\tstring nomeRealatore;\n\t\tuint256 timestamp_creation;\n\t\taddress [] commisione;\n\t}\n\t\n\tconstructor(\t\n\t\t\t\tstring memory laurea_,\n\t\t\t\tstring memory nomeLaureando_,\n\t\t\t\tstring memory codiceFiscaleLaureando_,\n\t\t\t\tstring memory nomeRealatore_,\n\t\t\t\tuint256 timestamp_creation_,\n\t\t\t\taddress[] memory commisione_\n\t\t\t\t)   {\n\t\ttimestamp_creation=timestamp_creation_;\n\t\tlaurea=laurea_;\n\t\tnomeLaureando=nomeLaureando_;\n\t\tcodiceFiscaleLaureando=codiceFiscaleLaureando_;\n\t\tnomeRealatore=nomeRealatore_;\n\t\tfor(uint i=0; i<commisione_.length; i++){\n\t\t\tcommisione.push(commisione_[i]);\n\t\t}\n\n\t}\n\n\tfunction is_in_array(address addr, address[] memory array)pure internal returns (bool){\n\t\tfor(uint i=0; i<array.length; i++){\n\t\t\tif(addr == array[i]){\n\t\t\t\treturn true;\n\t\t\t}\n\t\t}\n\t\treturn false;\n\t}\n\n\tfunction sign() public {\n\t\trequire(is_in_array(msg.sender, commisione), \"Il professore non e' nella commisione\");\n\t\trequire(!hasSigned[msg.sender], \"Il professore ha gia firmato il certificato\");\n\t\thasSigned[msg.sender]=true;\n\t}\n\n\tfunction has_signed(address signer) public view returns (bool){\n\t\treturn hasSigned[signer];\n\t}\n\n\tfunction get_degree() public view returns (degree memory){\n\t\treturn degree(\n\t\t\t\tlaurea,\n\t\t\t\tnomeLaureando,\n\t\t\t\tcodiceFiscaleLaureando,\n\t\t\t\tnomeRealatore,\n\t\t\t\ttimestamp_creation,\n\t\t\t\tcommisione\n\t\t);\n\t}\n\n}\n",
  "sourcePath": "D:\\documenti\\UNIVERSITA\\3 degree block chain\\degree-certificate-but-on-blockchain\\smartcontract\\degreeblock\\contracts\\CreateDegree.sol",
  "compiler": {
    "name": "solc",
    "version": "0.8.0+commit.c7dfd78e.Emscripten.clang"
  },
  "schemaVersion": "3.4.3",
  "updatedAt": "2022-02-12T16:23:51.259Z",
  "networkType": "ethereum",
  "devdoc": {
    "kind": "dev",
    "methods": {},
    "version": 1
  },
  "userdoc": {
    "kind": "user",
    "methods": {},
    "version": 1
  }
}