{
  "contractName": "CreateDegree",
  "abi": [
    {
      "inputs": [],
      "stateMutability": "nonpayable",
      "type": "constructor"
    },
    {
      "anonymous": false,
      "inputs": [
        {
          "indexed": false,
          "internalType": "contract DegreeBlock",
          "name": "degree",
          "type": "address"
        },
        {
          "indexed": false,
          "internalType": "string",
          "name": "laurea",
          "type": "string"
        },
        {
          "indexed": false,
          "internalType": "uint256",
          "name": "timestamp_creation",
          "type": "uint256"
        },
        {
          "indexed": false,
          "internalType": "address[]",
          "name": "commisione",
          "type": "address[]"
        }
      ],
      "name": "certificato_creato",
      "type": "event"
    },
    {
      "inputs": [
        {
          "internalType": "address",
          "name": "new_cordinatore",
          "type": "address"
        }
      ],
      "name": "change_cordinatoreCorso",
      "outputs": [],
      "stateMutability": "nonpayable",
      "type": "function"
    },
    {
      "inputs": [
        {
          "internalType": "address",
          "name": "_address",
          "type": "address"
        }
      ],
      "name": "is_valid_certificate",
      "outputs": [
        {
          "internalType": "bool",
          "name": "",
          "type": "bool"
        }
      ],
      "stateMutability": "view",
      "type": "function",
      "constant": true
    },
    {
      "inputs": [
        {
          "internalType": "string",
          "name": "_nome_cognome",
          "type": "string"
        }
      ],
      "name": "set_nome_cognome",
      "outputs": [],
      "stateMutability": "nonpayable",
      "type": "function"
    },
    {
      "inputs": [
        {
          "internalType": "address",
          "name": "_address",
          "type": "address"
        }
      ],
      "name": "get_nome_cognome",
      "outputs": [
        {
          "internalType": "string",
          "name": "",
          "type": "string"
        }
      ],
      "stateMutability": "view",
      "type": "function",
      "constant": true
    },
    {
      "inputs": [
        {
          "internalType": "string",
          "name": "laurea",
          "type": "string"
        },
        {
          "internalType": "string",
          "name": "nomeLaureando",
          "type": "string"
        },
        {
          "internalType": "string",
          "name": "codiceFiscaleLaureando",
          "type": "string"
        },
        {
          "internalType": "string",
          "name": "nomeRealatore",
          "type": "string"
        },
        {
          "internalType": "address[]",
          "name": "commisione",
          "type": "address[]"
        }
      ],
      "name": "crea_certificato_di_laurea",
      "outputs": [
        {
          "internalType": "address",
          "name": "",
          "type": "address"
        }
      ],
      "stateMutability": "nonpayable",
      "type": "function"
    }
  ],
  "bytecode": "0x608060405273f472a171dc35fd30a2462dd5cdcf5f39b26dc390600260006101000a81548173ffffffffffffffffffffffffffffffffffffffff021916908373ffffffffffffffffffffffffffffffffffffffff16021790555034801561006557600080fd5b50612078806100756000396000f3fe60806040523480156200001157600080fd5b50600436106200005e5760003560e01c8063225a504d14620000635780632a4dadfa146200008357806339bd09a914620000b957806347e1f15c14620000ef578063fe9c45421462000125575b600080fd5b6200008160048036038101906200007b91906200073e565b62000145565b005b620000a160048036038101906200009b919062000712565b6200019d565b604051620000b0919062000a21565b60405180910390f35b620000d76004803603810190620000d1919062000712565b620001f3565b604051620000e6919062000a99565b60405180910390f35b6200010d600480360381019062000107919062000783565b620002cb565b6040516200011c919062000a04565b60405180910390f35b6200014360048036038101906200013d919062000712565b62000450565b005b806000803373ffffffffffffffffffffffffffffffffffffffff1673ffffffffffffffffffffffffffffffffffffffff16815260200190815260200160002090805190602001906200019992919062000529565b5050565b6000600160008373ffffffffffffffffffffffffffffffffffffffff1673ffffffffffffffffffffffffffffffffffffffff16815260200190815260200160002060009054906101000a900460ff169050919050565b60606000808373ffffffffffffffffffffffffffffffffffffffff1673ffffffffffffffffffffffffffffffffffffffff1681526020019081526020016000208054620002409062000d11565b80601f01602080910402602001604051908101604052809291908181526020018280546200026e9062000d11565b8015620002bf5780601f106200029357610100808354040283529160200191620002bf565b820191906000526020600020905b815481529060010190602001808311620002a157829003601f168201915b50505050509050919050565b6000600260009054906101000a900473ffffffffffffffffffffffffffffffffffffffff1673ffffffffffffffffffffffffffffffffffffffff163373ffffffffffffffffffffffffffffffffffffffff161462000360576040517f08c379a0000000000000000000000000000000000000000000000000000000008152600401620003579062000b4d565b60405180910390fd5b600042905060008787878785886040516200037b90620005ba565b6200038c9695949392919062000abd565b604051809103906000f080158015620003a9573d6000803e3d6000fd5b5090507ffd3a0d04d2ab8c9ac68c124b21d3af427604beed9d395e3f99f327ef9df9cc8681898487604051620003e3949392919062000a3e565b60405180910390a160018060008373ffffffffffffffffffffffffffffffffffffffff1673ffffffffffffffffffffffffffffffffffffffff16815260200190815260200160002060006101000a81548160ff021916908315150217905550809250505095945050505050565b600073ffffffffffffffffffffffffffffffffffffffff168173ffffffffffffffffffffffffffffffffffffffff1614158015620004db5750600260009054906101000a900473ffffffffffffffffffffffffffffffffffffffff1673ffffffffffffffffffffffffffffffffffffffff163373ffffffffffffffffffffffffffffffffffffffff16145b620004e557600080fd5b80600260006101000a81548173ffffffffffffffffffffffffffffffffffffffff021916908373ffffffffffffffffffffffffffffffffffffffff16021790555050565b828054620005379062000d11565b90600052602060002090601f0160209004810192826200055b5760008555620005a7565b82601f106200057657805160ff1916838001178555620005a7565b82800160010185558215620005a7579182015b82811115620005a657825182559160200191906001019062000589565b5b509050620005b69190620005c8565b5090565b6112728062000dd183390190565b5b80821115620005e3576000816000905550600101620005c9565b5090565b6000620005fe620005f88462000ba3565b62000b6f565b905080838252602082019050828560208602820111156200061e57600080fd5b60005b85811015620006525781620006378882620006a1565b84526020840193506020830192505060018101905062000621565b5050509392505050565b6000620006736200066d8462000bd2565b62000b6f565b9050828152602081018484840111156200068c57600080fd5b6200069984828562000ccc565b509392505050565b600081359050620006b28162000db6565b92915050565b600082601f830112620006ca57600080fd5b8135620006dc848260208601620005e7565b91505092915050565b600082601f830112620006f757600080fd5b8135620007098482602086016200065c565b91505092915050565b6000602082840312156200072557600080fd5b60006200073584828501620006a1565b91505092915050565b6000602082840312156200075157600080fd5b600082013567ffffffffffffffff8111156200076c57600080fd5b6200077a84828501620006e5565b91505092915050565b600080600080600060a086880312156200079c57600080fd5b600086013567ffffffffffffffff811115620007b757600080fd5b620007c588828901620006e5565b955050602086013567ffffffffffffffff811115620007e357600080fd5b620007f188828901620006e5565b945050604086013567ffffffffffffffff8111156200080f57600080fd5b6200081d88828901620006e5565b935050606086013567ffffffffffffffff8111156200083b57600080fd5b6200084988828901620006e5565b925050608086013567ffffffffffffffff8111156200086757600080fd5b6200087588828901620006b8565b9150509295509295909350565b60006200089083836200089c565b60208301905092915050565b620008a78162000c5a565b82525050565b620008b88162000c5a565b82525050565b6000620008cb8262000c15565b620008d7818562000c38565b9350620008e48362000c05565b8060005b838110156200091b578151620008ff888262000882565b97506200090c8362000c2b565b925050600181019050620008e8565b5085935050505092915050565b620009338162000c6e565b82525050565b620009448162000ca4565b82525050565b6000620009578262000c20565b62000963818562000c49565b93506200097581856020860162000cdb565b620009808162000da5565b840191505092915050565b60006200099a60408362000c49565b91507f536f6c6f20696c20636f7264696e61746f72652064656c20636f72736f20707560008301527f6f2063726561726520756e20636572746966696361746f206469206c617572616020830152604082019050919050565b620009fe8162000c9a565b82525050565b600060208201905062000a1b6000830184620008ad565b92915050565b600060208201905062000a38600083018462000928565b92915050565b600060808201905062000a55600083018762000939565b818103602083015262000a6981866200094a565b905062000a7a6040830185620009f3565b818103606083015262000a8e8184620008be565b905095945050505050565b6000602082019050818103600083015262000ab581846200094a565b905092915050565b600060c082019050818103600083015262000ad981896200094a565b9050818103602083015262000aef81886200094a565b9050818103604083015262000b0581876200094a565b9050818103606083015262000b1b81866200094a565b905062000b2c6080830185620009f3565b81810360a083015262000b408184620008be565b9050979650505050505050565b6000602082019050818103600083015262000b68816200098b565b9050919050565b6000604051905081810181811067ffffffffffffffff8211171562000b995762000b9862000d76565b5b8060405250919050565b600067ffffffffffffffff82111562000bc15762000bc062000d76565b5b602082029050602081019050919050565b600067ffffffffffffffff82111562000bf05762000bef62000d76565b5b601f19601f8301169050602081019050919050565b6000819050602082019050919050565b600081519050919050565b600081519050919050565b6000602082019050919050565b600082825260208201905092915050565b600082825260208201905092915050565b600062000c678262000c7a565b9050919050565b60008115159050919050565b600073ffffffffffffffffffffffffffffffffffffffff82169050919050565b6000819050919050565b600062000cb18262000cb8565b9050919050565b600062000cc58262000c7a565b9050919050565b82818337600083830152505050565b60005b8381101562000cfb57808201518184015260208101905062000cde565b8381111562000d0b576000848401525b50505050565b6000600282049050600182168062000d2a57607f821691505b6020821081141562000d415762000d4062000d47565b5b50919050565b7f4e487b7100000000000000000000000000000000000000000000000000000000600052602260045260246000fd5b7f4e487b7100000000000000000000000000000000000000000000000000000000600052604160045260246000fd5b6000601f19601f8301169050919050565b62000dc18162000c5a565b811462000dcd57600080fd5b5056fe60806040523480156200001157600080fd5b506040516200127238038062001272833981810160405281019062000037919062000368565b8160058190555085600090805190602001906200005692919062000176565b5084600190805190602001906200006f92919062000176565b5083600290805190602001906200008892919062000176565b508260039080519060200190620000a192919062000176565b5060005b815181101562000169576004828281518110620000eb577f4e487b7100000000000000000000000000000000000000000000000000000000600052603260045260246000fd5b60200260200101519080600181540180825580915050600190039060005260206000200160009091909190916101000a81548173ffffffffffffffffffffffffffffffffffffffff021916908373ffffffffffffffffffffffffffffffffffffffff16021790555080806200016090620005bb565b915050620000a5565b50505050505050620006ca565b828054620001849062000585565b90600052602060002090601f016020900481019282620001a85760008555620001f4565b82601f10620001c357805160ff1916838001178555620001f4565b82800160010185558215620001f4579182015b82811115620001f3578251825591602001919060010190620001d6565b5b50905062000203919062000207565b5090565b5b808211156200022257600081600090555060010162000208565b5090565b60006200023d6200023784620004af565b6200047b565b905080838252602082019050828560208602820111156200025d57600080fd5b60005b85811015620002915781620002768882620002e0565b84526020840193506020830192505060018101905062000260565b5050509392505050565b6000620002b2620002ac84620004de565b6200047b565b905082815260208101848484011115620002cb57600080fd5b620002d88482856200054f565b509392505050565b600081519050620002f18162000696565b92915050565b600082601f8301126200030957600080fd5b81516200031b84826020860162000226565b91505092915050565b600082601f8301126200033657600080fd5b8151620003488482602086016200029b565b91505092915050565b6000815190506200036281620006b0565b92915050565b60008060008060008060c087890312156200038257600080fd5b600087015167ffffffffffffffff8111156200039d57600080fd5b620003ab89828a0162000324565b965050602087015167ffffffffffffffff811115620003c957600080fd5b620003d789828a0162000324565b955050604087015167ffffffffffffffff811115620003f557600080fd5b6200040389828a0162000324565b945050606087015167ffffffffffffffff8111156200042157600080fd5b6200042f89828a0162000324565b93505060806200044289828a0162000351565b92505060a087015167ffffffffffffffff8111156200046057600080fd5b6200046e89828a01620002f7565b9150509295509295509295565b6000604051905081810181811067ffffffffffffffff82111715620004a557620004a462000667565b5b8060405250919050565b600067ffffffffffffffff821115620004cd57620004cc62000667565b5b602082029050602081019050919050565b600067ffffffffffffffff821115620004fc57620004fb62000667565b5b601f19601f8301169050602081019050919050565b60006200051e8262000525565b9050919050565b600073ffffffffffffffffffffffffffffffffffffffff82169050919050565b6000819050919050565b60005b838110156200056f57808201518184015260208101905062000552565b838111156200057f576000848401525b50505050565b600060028204905060018216806200059e57607f821691505b60208210811415620005b557620005b462000638565b5b50919050565b6000620005c88262000545565b91507fffffffffffffffffffffffffffffffffffffffffffffffffffffffffffffffff821415620005fe57620005fd62000609565b5b600182019050919050565b7f4e487b7100000000000000000000000000000000000000000000000000000000600052601160045260246000fd5b7f4e487b7100000000000000000000000000000000000000000000000000000000600052602260045260246000fd5b7f4e487b7100000000000000000000000000000000000000000000000000000000600052604160045260246000fd5b620006a18162000511565b8114620006ad57600080fd5b50565b620006bb8162000545565b8114620006c757600080fd5b50565b610b9880620006da6000396000f3fe608060405234801561001057600080fd5b50600436106100415760003560e01c806314bc8ab6146100465780632ca15122146100765780634ac819aa14610080575b600080fd5b610060600480360381019061005b919061068d565b61009e565b60405161006d9190610903565b60405180910390f35b61007e6100f4565b005b6100886102aa565b604051610095919061095e565b60405180910390f35b6000600660008373ffffffffffffffffffffffffffffffffffffffff1673ffffffffffffffffffffffffffffffffffffffff16815260200190815260200160002060009054906101000a900460ff169050919050565b61018433600480548060200260200160405190810160405280929190818152602001828054801561017a57602002820191906000526020600020905b8160009054906101000a900473ffffffffffffffffffffffffffffffffffffffff1673ffffffffffffffffffffffffffffffffffffffff1681526020019060010190808311610130575b5050505050610594565b6101c3576040517f08c379a00000000000000000000000000000000000000000000000000000000081526004016101ba9061093e565b60405180910390fd5b600660003373ffffffffffffffffffffffffffffffffffffffff1673ffffffffffffffffffffffffffffffffffffffff16815260200190815260200160002060009054906101000a900460ff1615610250576040517f08c379a00000000000000000000000000000000000000000000000000000000081526004016102479061091e565b60405180910390fd5b6001600660003373ffffffffffffffffffffffffffffffffffffffff1673ffffffffffffffffffffffffffffffffffffffff16815260200190815260200160002060006101000a81548160ff021916908315150217905550565b6102b2610642565b6040518060c00160405280600080546102ca90610a61565b80601f01602080910402602001604051908101604052809291908181526020018280546102f690610a61565b80156103435780601f1061031857610100808354040283529160200191610343565b820191906000526020600020905b81548152906001019060200180831161032657829003601f168201915b505050505081526020016001805461035a90610a61565b80601f016020809104026020016040519081016040528092919081815260200182805461038690610a61565b80156103d35780601f106103a8576101008083540402835291602001916103d3565b820191906000526020600020905b8154815290600101906020018083116103b657829003601f168201915b50505050508152602001600280546103ea90610a61565b80601f016020809104026020016040519081016040528092919081815260200182805461041690610a61565b80156104635780601f1061043857610100808354040283529160200191610463565b820191906000526020600020905b81548152906001019060200180831161044657829003601f168201915b505050505081526020016003805461047a90610a61565b80601f01602080910402602001604051908101604052809291908181526020018280546104a690610a61565b80156104f35780601f106104c8576101008083540402835291602001916104f3565b820191906000526020600020905b8154815290600101906020018083116104d657829003601f168201915b505050505081526020016005548152602001600480548060200260200160405190810160405280929190818152602001828054801561058757602002820191906000526020600020905b8160009054906101000a900473ffffffffffffffffffffffffffffffffffffffff1673ffffffffffffffffffffffffffffffffffffffff168152602001906001019080831161053d575b5050505050815250905090565b600080600090505b8251811015610636578281815181106105de577f4e487b7100000000000000000000000000000000000000000000000000000000600052603260045260246000fd5b602002602001015173ffffffffffffffffffffffffffffffffffffffff168473ffffffffffffffffffffffffffffffffffffffff16141561062357600191505061063c565b808061062e90610a93565b91505061059c565b50600090505b92915050565b6040518060c001604052806060815260200160608152602001606081526020016060815260200160008152602001606081525090565b60008135905061068781610b4b565b92915050565b60006020828403121561069f57600080fd5b60006106ad84828501610678565b91505092915050565b60006106c283836106ce565b60208301905092915050565b6106d7816109e6565b82525050565b60006106e882610990565b6106f281856109b3565b93506106fd83610980565b8060005b8381101561072e57815161071588826106b6565b9750610720836109a6565b925050600181019050610701565b5085935050505092915050565b610744816109f8565b82525050565b60006107558261099b565b61075f81856109c4565b935061076f818560208601610a2e565b61077881610b3a565b840191505092915050565b6000610790602b836109d5565b91507f496c2070726f666573736f726520686120676961206669726d61746f20696c2060008301527f636572746966696361746f0000000000000000000000000000000000000000006020830152604082019050919050565b60006107f66025836109d5565b91507f496c2070726f666573736f7265206e6f6e206527206e656c6c6120636f6d6d6960008301527f73696f6e650000000000000000000000000000000000000000000000000000006020830152604082019050919050565b600060c083016000830151848203600086015261086c828261074a565b91505060208301518482036020860152610886828261074a565b915050604083015184820360408601526108a0828261074a565b915050606083015184820360608601526108ba828261074a565b91505060808301516108cf60808601826108f4565b5060a083015184820360a08601526108e782826106dd565b9150508091505092915050565b6108fd81610a24565b82525050565b6000602082019050610918600083018461073b565b92915050565b6000602082019050818103600083015261093781610783565b9050919050565b60006020820190508181036000830152610957816107e9565b9050919050565b60006020820190508181036000830152610978818461084f565b905092915050565b6000819050602082019050919050565b600081519050919050565b600081519050919050565b6000602082019050919050565b600082825260208201905092915050565b600082825260208201905092915050565b600082825260208201905092915050565b60006109f182610a04565b9050919050565b60008115159050919050565b600073ffffffffffffffffffffffffffffffffffffffff82169050919050565b6000819050919050565b60005b83811015610a4c578082015181840152602081019050610a31565b83811115610a5b576000848401525b50505050565b60006002820490506001821680610a7957607f821691505b60208210811415610a8d57610a8c610b0b565b5b50919050565b6000610a9e82610a24565b91507fffffffffffffffffffffffffffffffffffffffffffffffffffffffffffffffff821415610ad157610ad0610adc565b5b600182019050919050565b7f4e487b7100000000000000000000000000000000000000000000000000000000600052601160045260246000fd5b7f4e487b7100000000000000000000000000000000000000000000000000000000600052602260045260246000fd5b6000601f19601f8301169050919050565b610b54816109e6565b8114610b5f57600080fd5b5056fea2646970667358221220e2260648769efdc4db96c6de399f7582796c689eeb1756adc8bce0bf8dc6745e64736f6c63430008000033a26469706673582212200b77a490884e4e6cd32d1f112e50c3fc0caabe4e47dbae632c3f7ba2d5a7c3cf64736f6c63430008000033",
  "immutableReferences": {},
  "source": "// SPDX-License-Identifier: MIT\r\npragma solidity ^0.8.0;\r\n\r\n\r\n\r\n\r\n\r\n\r\ncontract CreateDegree{\r\n\r\n\tmapping (address => string) nome_cognome;\r\n\tmapping (address => bool) is_istazied;\r\n\r\n\taddress cordinatoreCorso = 0xf472a171dc35fD30a2462dD5CDCF5F39b26dc390;\r\n\t\r\n\tconstructor()  {}\r\n\r\n\tfunction change_cordinatoreCorso(address new_cordinatore) public {\r\n\t\trequire(new_cordinatore != 0x0000000000000000000000000000000000000000 \r\n\t\t\t\t&& msg.sender == cordinatoreCorso);\r\n\t\tcordinatoreCorso = new_cordinatore;\r\n\t}\r\n\r\n\tfunction is_valid_certificate( address  _address) public view returns (bool){\r\n\t\treturn is_istazied[_address];\r\n\t}\r\n\r\n\tfunction set_nome_cognome(string memory _nome_cognome) public{\r\n\t\tnome_cognome[msg.sender] = _nome_cognome;\r\n\t}\r\n\r\n\tfunction get_nome_cognome(address _address) public view returns (string memory) {\r\n\t\treturn nome_cognome[_address];\r\n\t}\r\n\r\n\tevent  certificato_creato(\r\n\t\t\tDegreeBlock degree,\r\n\t\t\t\tstring laurea,\r\n\t\t\t\tuint256 timestamp_creation,\r\n\t\t\t\taddress[] commisione);\r\n\r\n\tfunction crea_certificato_di_laurea(\r\n\t\t\t\t\tstring memory laurea,\r\n\t\t\t\t\tstring memory nomeLaureando,\r\n\t\t\t\t\tstring memory codiceFiscaleLaureando,\r\n\t\t\t\t\tstring memory nomeRealatore,\r\n\t\t\t\t\taddress[] memory commisione\r\n\t\t\t\t\t\t) public returns ( address  ){\r\n\t\t\r\n\t\trequire(msg.sender == cordinatoreCorso, \r\n\t\t\t\t\"Solo il cordinatore del corso puo creare un certificato di laura\");\r\n\t\t\r\n\t\tuint256 timestamp=  block.timestamp;\r\n\t\tDegreeBlock degree= new DegreeBlock(\r\n\t\t\t\t \tlaurea,\r\n\t\t\t\t\tnomeLaureando,\r\n\t\t\t\t\tcodiceFiscaleLaureando,\r\n\t\t\t\t\tnomeRealatore,\r\n\t\t\t\t\ttimestamp,\r\n\t\t\t\t\tcommisione\r\n\t\t);\r\n\r\n\t\temit certificato_creato(degree, laurea,timestamp,commisione);\r\n\t\tis_istazied[address(degree)]=true;\r\n\t\treturn address(degree);\r\n\r\n\t}\r\n\r\n\r\n}\r\n\r\ncontract DegreeBlock {\r\n\tstring laurea;\r\n\tstring nomeLaureando;\r\n\tstring codiceFiscaleLaureando;\r\n\tstring nomeRealatore;\r\n\taddress [] commisione;\r\n\tuint256 timestamp_creation;\r\n\tmapping (address => bool) hasSigned;\r\n\r\n\t\r\n\tstruct degree{\r\n\t\tstring laurea;\r\n\t\tstring nomeLaureando;\r\n\t\tstring codiceFiscaleLaureando;\r\n\t\tstring nomeRealatore;\r\n\t\tuint256 timestamp_creation;\r\n\t\taddress [] commisione;\r\n\t}\r\n\t\r\n\tconstructor(\t\r\n\t\t\t\tstring memory laurea_,\r\n\t\t\t\tstring memory nomeLaureando_,\r\n\t\t\t\tstring memory codiceFiscaleLaureando_,\r\n\t\t\t\tstring memory nomeRealatore_,\r\n\t\t\t\tuint256 timestamp_creation_,\r\n\t\t\t\taddress[] memory commisione_\r\n\t\t\t\t)   {\r\n\t\ttimestamp_creation=timestamp_creation_;\r\n\t\tlaurea=laurea_;\r\n\t\tnomeLaureando=nomeLaureando_;\r\n\t\tcodiceFiscaleLaureando=codiceFiscaleLaureando_;\r\n\t\tnomeRealatore=nomeRealatore_;\r\n\t\tfor(uint i=0; i<commisione_.length; i++){\r\n\t\t\tcommisione.push(commisione_[i]);\r\n\t\t}\r\n\r\n\t}\r\n\r\n\tfunction is_in_array(address addr, address[] memory array)pure internal returns (bool){\r\n\t\tfor(uint i=0; i<array.length; i++){\r\n\t\t\tif(addr == array[i]){\r\n\t\t\t\treturn true;\r\n\t\t\t}\r\n\t\t}\r\n\t\treturn false;\r\n\t}\r\n\r\n\tfunction sign() public {\r\n\t\trequire(is_in_array(msg.sender, commisione), \"Il professore non e' nella commisione\");\r\n\t\trequire(!hasSigned[msg.sender], \"Il professore ha gia firmato il certificato\");\r\n\t\thasSigned[msg.sender]=true;\r\n\t}\r\n\r\n\tfunction has_signed(address signer) public view returns (bool){\r\n\t\treturn hasSigned[signer];\r\n\t}\r\n\r\n\tfunction get_degree() public view returns (degree memory){\r\n\t\treturn degree(\r\n\t\t\t\tlaurea,\r\n\t\t\t\tnomeLaureando,\r\n\t\t\t\tcodiceFiscaleLaureando,\r\n\t\t\t\tnomeRealatore,\r\n\t\t\t\ttimestamp_creation,\r\n\t\t\t\tcommisione\r\n\t\t);\r\n\t}\r\n\r\n}\r\n",
  "sourcePath": "D:\\documenti\\UNIVERSITA\\3 degree block chain\\deploy\\smartcontract\\degreeblock\\contracts\\CreateDegree.sol",
  "compiler": {
    "name": "solc",
    "version": "0.8.0+commit.c7dfd78e.Emscripten.clang"
  },
  "schemaVersion": "3.4.3",
  "updatedAt": "2022-03-02T09:09:43.268Z",
  "networkType": "ethereum",
  "devdoc": {
    "kind": "dev",
    "methods": {},
    "version": 1
  },
  "userdoc": {
    "kind": "user",
    "methods": {},
    "version": 1
  }
}