{
  "contractName": "DegreeBlock",
  "abi": [
    {
      "inputs": [
        {
          "internalType": "string",
          "name": "laurea_",
          "type": "string"
        },
        {
          "internalType": "string",
          "name": "nomeLaureando_",
          "type": "string"
        },
        {
          "internalType": "string",
          "name": "codiceFiscaleLaureando_",
          "type": "string"
        },
        {
          "internalType": "string",
          "name": "nomeRealatore_",
          "type": "string"
        },
        {
          "internalType": "address[]",
          "name": "commisione_",
          "type": "address[]"
        },
        {
          "internalType": "string[]",
          "name": "nomePersoneNellaCommissione_",
          "type": "string[]"
        }
      ],
      "stateMutability": "nonpayable",
      "type": "constructor"
    },
    {
      "inputs": [],
      "name": "get_laurea",
      "outputs": [
        {
          "internalType": "string",
          "name": "",
          "type": "string"
        }
      ],
      "stateMutability": "view",
      "type": "function"
    }
  ],
  "bytecode": "0x608060405234801561001057600080fd5b506040516107f53803806107f5833981810160405281019061003291906102d6565b8560009080519060200190610048929190610099565b50846001908051906020019061005f929190610099565b508360029080519060200190610076929190610099565b50826003908051906020019061008d929190610099565b505050505050506105b4565b8280546100a59061050d565b90600052602060002090601f0160209004810192826100c7576000855561010e565b82601f106100e057805160ff191683800117855561010e565b8280016001018555821561010e579182015b8281111561010d5782518255916020019190600101906100f2565b5b50905061011b919061011f565b5090565b5b80821115610138576000816000905550600101610120565b5090565b600061014f61014a84610420565b6103ef565b9050808382526020820190508285602086028201111561016e57600080fd5b60005b8581101561019e57816101848882610243565b845260208401935060208301925050600181019050610171565b5050509392505050565b60006101bb6101b68461044c565b6103ef565b9050808382526020820190508260005b858110156101fb57815185016101e188826102ac565b8452602084019350602083019250506001810190506101cb565b5050509392505050565b600061021861021384610478565b6103ef565b90508281526020810184848401111561023057600080fd5b61023b8482856104da565b509392505050565b6000815190506102528161059d565b92915050565b600082601f83011261026957600080fd5b815161027984826020860161013c565b91505092915050565b600082601f83011261029357600080fd5b81516102a38482602086016101a8565b91505092915050565b600082601f8301126102bd57600080fd5b81516102cd848260208601610205565b91505092915050565b60008060008060008060c087890312156102ef57600080fd5b600087015167ffffffffffffffff81111561030957600080fd5b61031589828a016102ac565b965050602087015167ffffffffffffffff81111561033257600080fd5b61033e89828a016102ac565b955050604087015167ffffffffffffffff81111561035b57600080fd5b61036789828a016102ac565b945050606087015167ffffffffffffffff81111561038457600080fd5b61039089828a016102ac565b935050608087015167ffffffffffffffff8111156103ad57600080fd5b6103b989828a01610258565b92505060a087015167ffffffffffffffff8111156103d657600080fd5b6103e289828a01610282565b9150509295509295509295565b6000604051905081810181811067ffffffffffffffff821117156104165761041561056e565b5b8060405250919050565b600067ffffffffffffffff82111561043b5761043a61056e565b5b602082029050602081019050919050565b600067ffffffffffffffff8211156104675761046661056e565b5b602082029050602081019050919050565b600067ffffffffffffffff8211156104935761049261056e565b5b601f19601f8301169050602081019050919050565b60006104b3826104ba565b9050919050565b600073ffffffffffffffffffffffffffffffffffffffff82169050919050565b60005b838110156104f85780820151818401526020810190506104dd565b83811115610507576000848401525b50505050565b6000600282049050600182168061052557607f821691505b602082108114156105395761053861053f565b5b50919050565b7f4e487b7100000000000000000000000000000000000000000000000000000000600052602260045260246000fd5b7f4e487b7100000000000000000000000000000000000000000000000000000000600052604160045260246000fd5b6105a6816104a8565b81146105b157600080fd5b50565b610232806105c36000396000f3fe608060405234801561001057600080fd5b506004361061002b5760003560e01c8063963f661f14610030575b600080fd5b61003861004e565b6040516100459190610119565b60405180910390f35b60606000805461005d9061018a565b80601f01602080910402602001604051908101604052809291908181526020018280546100899061018a565b80156100d65780601f106100ab576101008083540402835291602001916100d6565b820191906000526020600020905b8154815290600101906020018083116100b957829003601f168201915b5050505050905090565b60006100eb8261013b565b6100f58185610146565b9350610105818560208601610157565b61010e816101eb565b840191505092915050565b6000602082019050818103600083015261013381846100e0565b905092915050565b600081519050919050565b600082825260208201905092915050565b60005b8381101561017557808201518184015260208101905061015a565b83811115610184576000848401525b50505050565b600060028204905060018216806101a257607f821691505b602082108114156101b6576101b56101bc565b5b50919050565b7f4e487b7100000000000000000000000000000000000000000000000000000000600052602260045260246000fd5b6000601f19601f830116905091905056fea2646970667358221220bcbe66ceac6a1a186fbae3bfd911e062d211085a74ebafa089499129f7755bf564736f6c63430008000033",
  "immutableReferences": {},
  "source": "// SPDX-License-Identifier: MIT\npragma solidity ^0.8.0;\n\n\n\n\n\n\ncontract CreateDegree{\n\n\t  constructor()  {\n          \n      }\n\n\t\n\n\n\tevent  certificato_creato(\n\t\t\tDegreeBlock degree,\n\t\t\t\tstring laurea,\n\t\t\t\tstring nomeLaureando,\n\t\t\t\tstring codiceFiscaleLaureando,\n\t\t\t\tstring nomeRealatore);\n\n\n\n\n\tfunction crea_certificato_di_laurea(\n\t\t\t\t\tstring memory laurea,\n\t\t\t\t\tstring memory nomeLaureando,\n\t\t\t\t\tstring memory codiceFiscaleLaureando,\n\t\t\t\t\tstring memory nomeRealatore,\n\t\t\t\t\taddress[] memory commisione,\n\t\t\t\t\tstring[] memory nomePersoneNellaCommissione) public returns ( address  ){\n\t\tDegreeBlock degree= new DegreeBlock(\n\t\t\t\t \tlaurea,\n\t\t\t\t\tnomeLaureando,\n\t\t\t\t\tcodiceFiscaleLaureando,\n\t\t\t\t\tnomeRealatore,\n\t\t\t\t\tcommisione,\n\t\t\t\t\tnomePersoneNellaCommissione\n\n\t\t);\n\n\t\temit certificato_creato(degree, laurea, nomeLaureando, codiceFiscaleLaureando, nomeRealatore);\n\n\t\treturn address(degree);\n\n\n\t\n\n\n\t}\n\n\n}\n\n\n\n\n\ncontract DegreeBlock {\n\t//mapping (address => uint) balances;\n\tstring laurea;\n\tstring nomeLaureando;\n\tstring codiceFiscaleLaureando;\n\tstring nomeRealatore;\n\taddress [] commisione;\n\tmapping (address => bool) hasSigned;\n\tmapping (address => string) nome_cognome;\n\n\t//event Transfer(address indexed _from, address indexed _to, uint256 _value);\n\n\tconstructor(\t\n\t\t\t\tstring memory laurea_,\n\t\t\t\tstring memory nomeLaureando_,\n\t\t\t\tstring memory codiceFiscaleLaureando_,\n\t\t\t\tstring memory nomeRealatore_,\n\t\t\t\taddress[] memory commisione_,\n\t\t\t\tstring[] memory nomePersoneNellaCommissione_) public {\n\t\tlaurea=laurea_;\n\t\tnomeLaureando=nomeLaureando_;\n\t\tcodiceFiscaleLaureando=codiceFiscaleLaureando_;\n\t\tnomeRealatore=nomeRealatore_;\n\n\t}\n\n\tfunction get_laurea() public view returns (string memory){\n\t\treturn laurea;\n\t}\n\n}\n",
  "sourcePath": "D:\\documenti\\UNIVERSITA\\3 degree block chain\\degree-certificate-but-on-blockchain\\smartcontract\\degreeblock\\contracts\\CreateDegree.sol",
  "compiler": {
    "name": "solc",
    "version": "0.8.0+commit.c7dfd78e.Emscripten.clang"
  },
  "schemaVersion": "3.4.3",
  "updatedAt": "2021-11-18T20:33:04.734Z",
  "devdoc": {
    "kind": "dev",
    "methods": {},
    "version": 1
  },
  "userdoc": {
    "kind": "user",
    "methods": {},
    "version": 1
  }
}